:020000040000FA
:10000000D0120010610100008B0100008D01000082
:100010008F0100009101000093010000000000002A
:10002000000000000000000000000000950100003A
:100030009701000000000000990100008107000006
:100040009D0100009D0100009D0100009D01000038
:100050009D0100009D0100009D0100009D01000028
:100060009D0100009D0100009D0100009D01000018
:100070009D0100009D0100009D0100009D01000008
:100080009D0100009D0100009D0100009D010000F8
:100090009D0100009D0100009D0100009D010000E8
:1000A0009D0100009D0100009D0100009D010000D8
:1000B0009D0100009D0100009D0100009D010000C8
:1000C0009D01000000F002F800F03AF80AA090E864
:1000D000000C82448344AAF10107DA4501D100F003
:1000E0002FF8AFF2090EBAE80F0013F0010F18BF96
:1000F000FB1A43F001031847681A0000881A000031
:10010000103A24BF78C878C1FAD8520724BF30C843
:1001100030C144BF04680C60704700000023002415
:1001200000250026103A28BF78C1FBD8520728BF07
:1001300030C148BF0B6070471FB51FBD10B510BD63
:1001400000F0DEF81146FFF7F7FF01F083F800F04A
:10015000C3F803B4FFF7F2FF03BC00F0F7F80000A8
:10016000124800684FF00101814201D01048004759
:100170000E484FF0000101684FF4C040016881F360
:10018000088846F2040108680047FEE7FEE7FEE73C
:10019000FEE7FEE7FEE7FEE7FEE7FEE7FEE700001C
:1001A00004480549034A054B70470000440000100D
:1001B000C5000000D0100010D0120010D0100010A8
:1001C00053EA020C00F069802DE9F04B4FF0000675
:1001D000002B1FBFB3FA83F503FA05F424FA05F6E2
:1001E0005E4012BF1643B2FA82F502FA05F4C5F179
:1001F00020051EBF22FA05FC44EA0C04203556EA0D
:10020000044C4FEA144418BF641C4FF000084FF030
:100210000009904271EB030C39D3002919BFB1FAE0
:1002200081F701FA07F6B0FA80F700FA07F6C7F18E
:1002300020071EBF20FA07FC46EA0C062037B6FB53
:10024000F4FCA7EB0507103F07F01F0BCBF12006CE
:100250000CFA0BFB2CFA06F644BFB3460026202FFF
:10026000A4BF5E464FF0000B5BEA060C08BF4FF0E0
:10027000010B19EB0B09ABFB027C48EB0608C01B1A
:1002800006FB02CC0BFB03CC71EB0C01C1E70B4668
:10029000024641464846BDE8F08B13B54FF00000DA
:1002A0004FF00001AFF30080BDE81C40704730B54F
:1002B00005460B462A4613F8014B12F8010B08B10C
:1002C000A042F8D01CB1002802D06D1CF1E72846EE
:1002D00030BD70477047704710B50446AFF30080DB
:1002E0002046BDE81040FFF734BF000000487047CB
:1002F000701000107047000000000000FFFFFFFFBB
:100300007546FFF7F3FFAE4605006946534620F0F9
:100310000700854618B020B5FFF742FFBDE8204032
:100320004FF000064FF000074FF000084FF0000BB1
:1003300021F00701AC46ACE8C009ACE8C009ACE864
:10034000C009ACE8C0098D4670470000014918207B
:10035000ABBEFEE726000200F0B58BB006460F46A6
:1003600014461D46352001900296039706A901A860
:10037000074A126890470698082805D10CB10798DB
:1003800020600DB1089828600698C0B20BB0F0BD8F
:1003900040000010012907D1084A12680243074BA8
:1003A000C43BC3F8C42007E031B9044A1268824351
:1003B000024BC43BC3F8C42070470000C4C00F40C8
:1003C000014631B1012907D0022908D003290CD1F7
:1003D00008E007480068704706480068FBE70648E1
:1003E0000068F8E705480068F5E700BFFEE7000091
:1003F0005000001054000010580000105C00001065
:1004000070B504460B46214618E0012A02D0022AA4
:100410000CD105E0084605780B4E3572491C0BE0FF
:1004200008460588084E3581891C05E00846064EB9
:100430000568B560091D00BF00BF5B1E002BE4D13D
:100440000148806870BD00000000092048B9002103
:10045000104A11604FF6FF71516000210E4A117071
:1004600017E0012808D115210A4A116000215160C6
:100470000121094A11700CE0022808D13621054AF1
:100480001160C11E51600221034A117001E000BFDA
:10049000FEE77047000009203C0000102DE9F04104
:1004A0008AB004460D461646204600F07BF880468A
:1004B0004146404600F0BAF807461FB138460AB038
:1004C000BDE8F0813320009001940295039600204E
:1004D000FFF776FF4FF47A71B0FBF1F1049110A1B0
:1004E0001448154A1268904721461248134A126868
:1004F000904713A10F48104A1268904729460D48AB
:100500000E4A1268904713A10A480B4A1268904796
:1005100005A96846104A126890470598C0B2CEE710
:100520000D0A6465737420616464723D3D3D3D3D18
:100530000000000000C00040000000102C0000106F
:100540000D0A736F75726520616464723D3D3D3DB7
:100550003D0000000D0A00004000001070B58AB098
:1005600004460E463146204600F060F8054615B1B7
:1005700028460AB070BD34200090019402960020F5
:10058000FFF71EFF4FF47A71B0FBF1F1039105A95B
:100590006846034A126890470598C0B2E9E7000030
:1005A000400000100146080B102802D30E2202EB77
:1005B000D000704770B505460C4625B1012D03D01B
:1005C000032D0ED10AE00DE0204600F0DBFF0648C7
:1005D000007800B906E000F0B1FE03E000F0AEFEE6
:1005E00000E000BF00BF70BD600000102DE9F041C9
:1005F00006460F46154600243946304600F00AF8F4
:100600000446206820F0070020602068284320600E
:10061000BDE8F08110B50246002001EB4213024C08
:1006200004EB830010BD000000C0024030B58BB069
:1006300004460D46322001900294039506A901A8B4
:10064000034A126890470698C0B20BB030BD000054
:100650004000001010B58AB004463A20009005A969
:1006600068460B4A12689047059860B95CB1002053
:1006700000BF05E006A951F8201044F82010401CE6
:100680000428F7D300BF0598C0B20AB010BD00001F
:100690004000001010B58AB004463620009005A92D
:1006A0006846064A12689047059810B90CB106983A
:1006B00020600598C0B20AB010BD000040000010D4
:1006C0004FF0E020006920F480304FF0E021086115
:1006D0007047012808D14FF0E021096941F001017C
:1006E0004FF0E022116107E04FF0E021096921F0AD
:1006F00001014FF0E02211617047012808D14FF04D
:10070000E021096941F002014FF0E022116107E0A8
:100710004FF0E021096921F002014FF0E022116160
:1007200070472DE9F04104460020FFF749FE0546D9
:100730004FF47A70B5FBF0F04FF08071B1FBF0F739
:10074000384601F01FF90646204601F01BF907461E
:10075000314601F0A5F901D200BFFEE74FF0E020DD
:10076000006940F004004FF0E02108614FF47A7016
:10077000B5FBF0F06043401E4861BDE8F081000029
:1007800010B5FFF79DFF0B4801680068401E094A3D
:10079000106069B90020FFF7B0FF0020FFF799FF54
:1007A00072B671B6012080F3108800BF00F0C6FD5C
:1007B00010BD00004C00001021202E49086000BF31
:1007C0002C48006800F040000028F9D00120294999
:1007D0009439086007202849C1F88400012026497F
:1007E00080310860AA2024498C31086055200860B7
:1007F00000BF21488830006800F480600028F8D0ED
:1008000023201D49A431086001201B49C1F8A00024
:10081000AA201949AC31086055201749C1F8AC002D
:1008200000BF1548A830006800F480600028F8D0A8
:1008300040F201100F499C39086040F201200E4936
:10084000C1F8080101200B49A039086002200949BC
:100850000831086009480849C4310860881505490D
:100860002831086045F23A00034908600020044935
:1008700008607047A0C10F4000C00F40DE87280409
:1008800008ED00E038B504460020009001231A4628
:100890006946204600F09EFB9DF8000038BD70B50B
:1008A00005460C460CB9002070BD002301222146EC
:1008B000284600F08FFB08B10120F5E70020F3E7A0
:1008C0002DE9FF4F83B00C4615461E4600200290CE
:1008D0000190002D03DC306007B0BDE8F08F4FF0D1
:1008E0000008012C01D1102003E00CB90A2000E01F
:1008F00000208246BAF1000F02D100203060EBE701
:10090000002785E00120019001231A4602A90398DF
:1009100000F060FB9DF80800302808DB9DF8080017
:10092000392804DC9DF80800A0F1300B37E0012CD9
:1009300033D14FF0100A9DF80800612811D008DC6F
:10094000A0F14100062824D2DFE800F00C101418B2
:100950001C20623805281CD2DFE800F0070B0F13BB
:10096000170000BF4FF00A0B16E000BF4FF00B0B53
:1009700012E000BF4FF00C0B0EE000BF4FF00D0B6C
:100980000AE000BF4FF00E0B06E000BF4FF00F0B68
:1009900002E00020019000BF01E000200190012052
:1009A00000900198B0B924B91CA1039800F04AFA4C
:1009B00005E0012C03D12449039800F043FA08F123
:1009C0000108B8F10A0F23D320A1039800F03AFAE6
:1009D000002081E79DF80810039800F04FF8012DE2
:1009E00003D1AA46012000900CE04FF0010907E076
:1009F000009800FB0AF0009009F1010000F0FF09E7
:100A0000A945F5DB00980BFB00FB5F44681EC5B2EF
:100A1000002D3FF777AF376001205DE7506C6561CF
:100A2000736520656E746572206120636861722051
:100A300066726F6D2027302720746F202739272199
:100A400021210D0A00000000041B000052656163B3
:100A500068206C696D69746174696F6E206F6620BF
:100A600072652D74726965732E2052657475726E8D
:100A7000204641494C45440D0A00000013B5044688
:100A800001231A4601A9204600F0E8FA1CBD2DE911
:100A9000F04105460C460A2094FBF0F100FB1140A2
:100AA000C6B20A2094FBF0F00A2190FBF1F201FBA0
:100AB0001200C7B2642094FBF0F090FBF1F201FB4E
:100AC000120000F0FF0808F13000C1B22846FFF71D
:100AD000D5FF07F13000C1B22846FFF7CFFF06F17E
:100AE0003000C1B22846FFF7C9FFBDE8F0812DE90B
:100AF000F04705460C460A2094FBF0F100FB11403C
:100B0000C6B20A2094FBF0F00A2190FBF1F201FB3F
:100B10001200C7B2642094FBF0F090FBF1F201FBED
:100B2000120000F0FF084FF47A7094FBF0F090FB95
:100B3000F1F201FB120000F0FF0942F2107094FB89
:100B4000F0F090FBF1F201FB120000F0FF0A0AF155
:100B50003000C1B22846FFF791FF09F13000C1B261
:100B60002846FFF78BFF08F13000C1B22846FFF797
:100B700085FF07F13000C1B22846FFF77FFF06F17D
:100B80003000C1B22846FFF779FFBDE8F0870000CA
:100B90002DE9F34F83B00C460A20B4FBF0F100FBC3
:100BA0001145B4FBF0F00A21B0FBF1F201FB120693
:100BB0006420B4FBF0F0B0FBF1F201FB12074FF43C
:100BC0007A70B4FBF0F0B0FBF1F201FB120842F2D4
:100BD0001070B4FBF0F0B0FBF1F201FB12093248E7
:100BE000B4FBF0F0B0FBF1F201FB120A2F48B4FBAA
:100BF000F0F0B0FBF1F201FB120B2D48B4FBF0F06A
:100C0000B0FBF1F201FB120002902A48B4FBF0F0B5
:100C1000B0FBF1F201FB120001902748B4FBF0F0A9
:100C2000B0FBF1F201FB1200009000983030C1B22D
:100C30000398FFF723FF01983030C1B20398FFF704
:100C40001DFF02983030C1B20398FFF717FF0BF178
:100C50003000C1B20398FFF711FF0AF13000C1B2B2
:100C60000398FFF70BFF09F13000C1B20398FFF7BB
:100C700005FF08F13000C1B20398FFF7FFFE07F14E
:100C80003000C1B20398FFF7F9FE06F13000C1B29F
:100C90000398FFF7F3FE05F13000C1B20398FFF7A8
:100CA000EDFE05B0BDE8F08FA086010040420F00C8
:100CB0008096980000E1F50500CA9A3B2DE9F041C5
:100CC00007460D460EA1384600F0BCF8012600BFCD
:100CD000B00045FA00F000F00F04092C02DD04F129
:100CE000370001E004F13000C1B23846FFF7C6FE1C
:100CF000301EA6F10101CEB2EAD1BDE8F0810000BC
:100D0000307800002DE9F04107460D460EA1384627
:100D100000F098F8032600BFB00045FA00F000F09C
:100D20000F04092C02DD04F1370001E004F130006A
:100D3000C1B23846FFF7A2FE301EA6F10101CEB2C5
:100D4000EAD1BDE8F0810000307800002DE9F041E3
:100D500007460D46032600BFB00045FA00F000F03C
:100D60000F04092C02DD04F1370001E004F130002A
:100D7000C1B23846FFF782FE301EA6F10101CEB2A5
:100D8000EAD1BDE8F08100002DE9F04107460D46AB
:100D90000EA1384600F056F8072600BFB00025FA2D
:100DA00000F000F00F04092C02DD04F1370001E02F
:100DB00004F13000C1B23846FFF760FE301EA6F1E4
:100DC0000101CEB2EAD1BDE8F08100003078000028
:100DD0002DE9F04107460D46072600BFB00025FA71
:100DE00000F000F00F04092C02DD04F1370001E0EF
:100DF00004F13000C1B23846FFF740FE301EA6F1C4
:100E00000101CEB2EAD1BDE8F0812DE9F0410746FB
:100E10000D46012600BFB00045FA00F000F00F04B7
:100E2000092C02DD04F1370001E004F13000C1B209
:100E30003846FFF723FE301EA6F10101CEB2EAD1FB
:100E4000BDE8F08170B506460D462C4604E014F866
:100E5000011B3046FFF712FE20780028F7D170BD45
:100E600070B504460D4629462046FFF7EBFF02A168
:100E70002046FFF7E7FF70BD0A0D00004FF4165142
:100E800001600321417100210171817170470000EF
:100E900070B504460E464B48844203D10121082018
:100EA000FFF778FA4848844203D101211020FFF768
:100EB00071FA4648844203D101210806FFF76AFA15
:100EC0004348844203D101214806FFF763FA072013
:100ED00020720020207200E02578207D00F00100C3
:100EE0000028F9D1802084F8300000BF207D00F078
:100EF00020000028FAD0002084F8300060602073C1
:100F0000206284F84C0084F8540084F85000257D59
:100F10002D48844203D100202074257E02E0002069
:100F200084F824002046316800F062FA26488442A2
:100F300003D1207B00F0C00502E0207B00F0C0055B
:100F4000707930B1012806D0022807D0032808D1D3
:100F500008E000BF09E045F0010506E045F00205A4
:100F600003E000BF45F0030500BF00BF3079C0B10A
:100F700045F008053079012806D0022806D003285C
:100F800007D004280BD107E000BF09E045F01005A9
:100F900006E045F0200503E045F0300500E000BF25
:100FA00000BFB07928B1012802D145F0040501E065
:100FB00000BF00BF00BF0448844201D1257300E098
:100FC000257370BD00C00040000001400080094052
:100FD00000C009402DE9F04305460F46904699466A
:100FE0003C464346B9F1010F19D1002214E04FF0FD
:100FF000FF3602E006B905E0761E287D00F001000C
:101000000028F7D000BF06B908E0284600F01CF819
:1010100004F8010B5B1E521C002BE8D110E00022EB
:101020000BE0287D00F0010000B908E0284600F040
:101030000BF804F8010B521C5B1E002BF1D100BF12
:101040001046BDE8F083000001460348814201D10B
:10105000087870470878FCE7000001402DE9F04F60
:101060000746894692469B464E465346BBF1010FC2
:1010700024D100241FE04FF0FF3805E0B8F1000F45
:1010800000D106E0A8F10108387D00F0200000281A
:10109000F4D000BFB8F1000F00D10EE0102507E03A
:1010A00016F8011B384600F025F86D1E5B1E641C07
:1010B0000DB1002BF4D1002BDDD118E0002413E09A
:1010C00003B913E0387D00F0200000B90EE01025D0
:1010D00007E016F8011B384600F00CF85B1E6D1E89
:1010E000641C0DB1002BF4D1002BE9D100BF2046C8
:1010F000BDE8F08F034A904201D1017000E0017019
:101100007047000000000140012910D10F4A9042B1
:1011100006D190F8302042F0800280F8302014E0B0
:1011200090F8302042F0800280F830200DE0074A2D
:10113000904205D190F83020002280F8302004E061
:1011400090F83020002280F83020704700000140E5
:101150001CB5012202210020FFF748FA01220321D9
:101160000020FFF743FA6846FFF788FE69461A48F1
:10117000FFF78EFE01211848FFF7C6FF17481849F0
:101180000860184818490860184819490860194843
:101190001949086019481A4908601A481A4908602C
:1011A0001A481B4908601B481B4908601B481C491A
:1011B00008601C481C4908601C481D4908601D48FF
:1011C0001D4908601D481E4908601E481E490860E8
:1011D0001E481F4908601CBD00C00040450E0000AD
:1011E00000000010610E0000040000107D0A0000E5
:1011F00008000010BD0C000018000010050D0000D4
:101200001C000010890D0000200000100B0E0000D3
:10121000240000104D0D000028000010D10D00002A
:101220002C0000108F0A00000C000010EF0A0000D4
:1012300010000010910B0000140000108508000041
:1012400030000010C1080000380000109F080000A6
:1012500034000010FFF7B0FA0A20FFF762FA01200D
:10126000FFF74BFA0120FFF734FAFFF771FF27A1D0
:1012700029482A4A1268904747E000202849087008
:1012800013E02548FFF7FEFA05460D2D0AD1002090
:10129000FFF733FA0020FFF71CFA1CA11E481F4A73
:1012A000126890473C2D00D100E0EAE700BF00241F
:1012B00023E01948FFF7E6FA1A4908550846015D88
:1012C0001548194A126890471648005D3E2813D108
:1012D00016A11448FEF7EBFF28B101201049087051
:1012E000104908700BE013A10E48FEF7E0FF18B19B
:1012F00003200B49087002E0641C0C2CD9D300BFFA
:10130000084907480078FFF755F9B6E70D0A726FEC
:101310006F743A7E2420000000C0004000000010DE
:10132000480000106410001008000010555044419F
:101330005441000052554E5F4150500010A11B48CF
:101340001B4A126890471BA11848194A1268904717
:1013500021A11648164A12689047012021490860C9
:1013600000BF2148006800F4E06020490843001DE8
:101370001D490860BFF34F8F00BF00BFFEE70000AC
:101380000D0A726F6F743A7E2420414C4C204461E8
:1013900074612050726F6772616D6D61204F4B20D8
:1013A000212121212E2E2E2E2E2E2E0000C0004077
:1013B000000000100D0A726F6F743A7E242052658F
:1013C00061647920746F20526573657420435055B1
:1013D00021212121212121000D0A726F6F743A7E93
:1013E00024200000440000100CED00E00000FA058D
:1013F0002DE9F04F8BB00446884600200A9001206A
:10140000FEF7DEFF09904FF0FF3B002007900690AB
:1014100000210D460E46012748E0002008903CE0E0
:101420000898384400FB08FC00210907099841EAA4
:10143000101100070022A0FB073E01FB07E100FBA3
:1014400002106246CDE900300023DDE90001FEF71D
:10145000B7FECDE90401DDF810A0DDF81490BAF173
:10146000004F03D9CAF1000A09F10109B9F1000FCF
:1014700002D0B9F5803F00D90CE0DA4509D2D34655
:1014800000264D46089807900697BBF1000F00D143
:1014900006E000BF0898401C08900898B842BFD3E7
:1014A00000BFBBF1000F00D102E07F1C0F2FB4D9A9
:1014B00000BF002185EA01007140084302D10BB052
:1014C000BDE8F08F09980009069900FB01FC084669
:1014D000079908440021A0FB052301FB053100FB0F
:1014E00006100346CDE9002060460021FEF768FEA5
:1014F00003900398804503D90398A8EB000B02E002
:101500000398A0EB080B64200BFB00F0B0FBF8FB8A
:10151000BBF1030F32D21A48844216D1207B40F02F
:1015200080002073280A40EA066020712570207B25
:1015300000F07F002073F021069801EA001007995F
:1015400001F00F010843A06216E0207B40F080000C
:101550002073280A40EA066020712570207B00F085
:101560007F002073F021069801EA0010079901F02E
:101570000F01084384F8280001200A900A989EE78A
:10158000000001402DE9F04F85B080464FF0000A81
:1015900000264FF4C040FFF705F883464FF4604043
:1015A000FFF700F800900220FEF750FF98F80000C7
:1015B00001282CD176A17C487C4A126890477CA1F6
:1015C00079487A4A12689047002412E07648FFF77B
:1015D00059F97A490855012C03D9052C01D9601F06
:1015E0000F5C7648005D3E2802D13C2F00D103E01D
:1015F000641CB4F5805FE9D300BF71A16A486B4AEF
:10160000126890476AA16848684A126890476B4818
:10161000005D3E2835D13C2F33D1201F6749085C3F
:1016200006433602E01E085C06433602A01E085C34
:1016300006433602601E085C0643611F01225F48B4
:10164000FEF7DEFE8246B2450DD165A15648574AE7
:101650001268904756A15448544A12689047012096
:101660006949087010E069A14F48504A12689047D4
:101670004FA14D484D4A12689047002062490870BA
:1016800002E00020604908705F48007801287BD1A3
:1016900000205D49087001A8FEF7FCFF0546002DFB
:1016A00068D101A8FEF7D6FF0546002D5BD158464C
:1016B0000099FEF7BBFF054658460099FEF74EFF1E
:1016C0000546002D48D102AB01AA58460099FEF705
:1016D00043FE0546002D38D1002433E04FF4C040CE
:1016E00000EB043958460099FEF7A0FF0546002D8F
:1016F00022D1324800EB04314FF480524846FEF7C5
:10170000CDFE054655B14BA12748284A126890479F
:1017100027A12548254A1268904712E04FA1224888
:10172000224A1268904722A11F48204A1268904717
:1017300001203549087004E055A11B481B4A126876
:101740009047641C082CC9D31EE05CA11648174AB8
:101750001268904700BFFEE764A11348134A12685D
:10176000904700BFFEE76BA10F48104A12689047F0
:1017700000BFFEE773A10C480C4A12689047002096
:101780002149087000BFFEE705B0BDE8F08F0000FA
:101790000D0A726F6F743A7E242052454144592ECF
:1017A0002E2E2E2E2E2E000000C000400000001015
:1017B0000D0A726F6F743A7E2420000064000010DE
:1017C0000D0A726F6F743A7E24206C6F616420641E
:1017D000617461204F4B2E2E2E2E2E2E2E000000D7
:1017E0000D0A726F6F743A7E24204352432043687F
:1017F00065636B2053756363657373202121212119
:101800002E2E2E2E2E2E2E00600000100D0A726F2E
:101810006F743A7E242043524320436865636B20F3
:1018200066616C736520212121212E2E2E2E2E2EF5
:101830002E0000000D0A726F6F743A7E24205072E1
:101840006F6772616D6D61204552524F52202121A8
:1018500021212E2E2E2E2E2E2E0000000D0A726F0C
:101860006F743A7E242050726F6772616D206461DC
:10187000746120746F20666C6173682053756363B4
:1018800065737320212121212E2E2E2E2E2E2E0027
:101890000D0A726F6F743A7E242050726570617207
:1018A00065536563746F72204552524F5220212157
:1018B00021212E2E2E2E2E2E2E0000000D0A726FAC
:1018C0006F743A7E2420426C616E6B436865636B73
:1018D000536563746F72204552524F52202121216B
:1018E000212E2E2E2E2E2E2E000000000D0A726F9D
:1018F0006F743A7E24204572617365536563746F1B
:1019000072204552524F5220212121212E2E2E2E5F
:101910002E2E2E000D0A726F6F743A7E24205265AF
:10192000616444657669636553657269616C4E757F
:101930006D204552524F5220212121212E2E2E2E34
:101940002E2E2E000D0A726F6F743A7E242052657F
:101950006164506172744944204552524F522021B3
:101960002121212E2E2E2E2E2E2E0000401058BF6B
:10197000C0F14040491058BFC1F140418142EFF3EE
:1019800000807047B0FA80F310FA03F2C3F19D03B0
:101990000AD0D90501EB1220530638BF704700F179
:1019A000010008BF20F001007047000050EA010C60
:1019B00000F113801CF5000F58BFBCF5000F01D4D7
:1019C0008842704707D710F5000F58BF11F5000F78
:1019D00015D488427047894270471CF5000F04D522
:1019E000BCF5000FF7D5814270474FF0807C1CEBAF
:1019F000400F38BF1CEB410F01D28142704710B538
:101A000000F008F8922449004FF000504FF0805148
:101A1000FFF7ACBF0EF1020E2EF0030E5EF8044B82
:101A2000244204D44FEA4102B2F17F4F11D84FEA69
:101A30004003B3F17F4F0CD80ED14FEAD07CB2F106
:101A40007F4F0CEB4C0C0CF1020C08BF4CEBD17C23
:101A500004E04FF0080C01E04FEAD17C0CEB4C03A2
:101A600024FA03F404F00704B4F1040C06D20EEBDC
:101A7000840CBDE810404CF0010C6047DFE80CF02E
:101A8000070802024FF00040A0F5800010BD084694
:101A9000420018BFD2F1807288BF00F0004010BD34
:101AA00051EA000C00F113801CF5000F58BFBCF583
:101AB000000F01D48142704707D711F5000F58BFBE
:101AC00010F5000F15D481427047894270471CF50C
:101AD000000F04D5BCF5000FF7D5884270474FF0D2
:101AE000807C1CEB410F38BF1CEB400F01D28842B9
:101AF000704780EA010081EA000180EA0100FFF7F7
:101B00007EBF0000506C6561736520656E74657200
:101B1000206120636861722066726F6D2027302714
:101B200020746F202739272C20616E642027612FB5
:101B300041272C2027622F42272C20632F43272C5C
:101B40002027642F44272C2027652F452720616EEE
:101B5000642027662F46272121210D0A000000005E
:101B6000801B000000000010640000000001000065
:101B7000E41B0000640000106C1200001C01000057
:101B80000000000000000000000000000000000055
:101B90000000000000000000000000000000000045
:101BA0000000000000000000000000000000000035
:101BB0000000000000000000000000000000000025
:101BC000F11FFF1F0000000000000000C80000001F
:101BD00000D8B805006CDC02006CDC02006CDC0292
:041BE0000000000001
:04000005000000C532
:00000001FF
